:020000040800F2
:10000000B8020020A5010008A9010008AB01000802
:10001000AD010008AF010008B101000800000000B8
:10002000000000000000000000000000B301000814
:10003000B501000800000000B7010008B901000880
:10004000BB010008BB010008BB010008BB010008A0
:10005000BB010008BB010008BB010008BB01000890
:10006000BB010008BB010008BB010008BB01000880
:10007000BB010008BB010008BB010008BB01000870
:10008000BB010008BB010008BB010008BB01000860
:10009000BB010008BB010008BB010008BB01000850
:1000A000BB010008BB010008BB010008BB01000840
:1000B000BB010008210A0008BB010008BB010008C1
:1000C000BB010008BB010008BB010008BB01000820
:1000D000BB010008A1060008BB010008BB01000825
:1000E000BB010008BB010008BB01000800F002F8DA
:1000F00000F049F80AA090E8000C82448344AAF179
:100100000107DA4501D100F03EF8AFF2090EBAE876
:100110000F0013F0010F18BFFB1A43F0010318473B
:10012000E828000008290000103A24BF78C878C1E8
:10013000FAD8520724BF30C830C144BF04680C60ED
:10014000704700000023002400250026103A28BF35
:1001500078C1FBD8520728BF30C148BF0B60704739
:10016000662902F0BA83002070471FB5AFF3008004
:1001700001F020F904000020002101F055FEE060AC
:100180001FBD10B510BD01F013FA1146FFF7EDFFCA
:1001900000F022F801F031FAFFF7F3FF00F072FAF5
:1001A00030BF000008480047FEE7FEE7FEE7FEE735
:1001B000FEE7FEE7FEE7FEE7FEE7FEE70348044949
:1001C000024A044B70470000ED000008B800002010
:1001D000B8020020B80000207FB5012000F0E2F94D
:1001E000092000F0F5F9482000F08CF800F014FB2D
:1001F00000F0B8FC0021F02000F05DFC4FF4165137
:10020000482000F088FA00F03FFB002032490860E7
:100210003249C1F884013049083108600120091DC4
:100220000860091D0860091D0860091D0860091D96
:1002300008602B49086041F61F41642000F010FC63
:1002400049E02848008840F001004FF08041A1F8C3
:10025000000400F0E5FB4FF08040B0F800044FF0E0
:100260008041A1F80004092000F0ABFB04462046C1
:1002700002F08CF9054601F0B7FFCDE902011AA0A2
:100280000CC8029801F056FECDE9000101F0E2FD34
:10029000174908600846006801F0A6FF0B460246B1
:1002A000CDE9020113A000F07FFD0A2000F041F823
:1002B00001200B490C310860782011490880012089
:1002C00005490C310860091D0860091D0860091DF9
:1002D0000860091D0860B4E7800121420000214246
:1002E00080812142000400406666666666664A3F79
:1002F0001400002025352E33660A200A0000000075
:10030000340800404FF0E021096921F004014FF06A
:10031000E02211610146C21700EB5272D2101F4B4E
:100320001A70194609784FF47A7251439A1C118059
:1003300070471A4A921C128842434FF0E0235A61D8
:1003400000229A6101221A6100BF4FF0E022116978
:1003500011F0010F02D011F4803FF6D000224FF0CF
:10036000E0231A619A6170470C4A127842434FF0B9
:10037000E0235A6100229A6101221A6100BF4FF006
:10038000E022116911F0010F02D011F4803FF6D084
:1003900000224FF0E0231A619A61704708000020A4
:1003A000AC4A0A400243AC4B1A607047072323EA69
:1003B00000021202A84B1B1D19684FF6FF031940DB
:1003C000A64B194311434FF0E023C3F80C1D7047AF
:1003D0002DE9F04704460D4616461F463046F117F4
:1003E00006EB91714FEAA109F11706EB91718910A3
:1003F000A6EB810101F0FF0A042101EBCA0000F025
:10040000FF0A3846FFF7D2FFC7F1040004FA00F8EC
:100410000F203841284040EA080808F00F08202E35
:1004200009DA8F4800680121B14008434FF0E0210C
:10043000C1F800010BE08A48001D0168A6F1200206
:100440000120904001434FF0E020C0F8041185489E
:1004500050F8290008FA0AF10143824840F82910AF
:10046000BDE8F08770B50D46CE1701EB9676B31058
:10047000CE1701EB9676B610A1EB8606B606340EC3
:10048000794DAD6945F00105774EB5614FEAB63556
:1004900055F823600F25A540AE43744D45F8236001
:1004A00055F8235000FA04F63543704E46F82350B1
:1004B0006F4D2E6801258D402E436C4D083DC5F8CB
:1004C000006412F0010F09D0694D0C352E6801252A
:1004D0008D402E43654D083DC5F80C6412F0020FA7
:1004E00009D0634D08352E6801258D402E435F4DA0
:1004F000083DC5F8086470BD00B500205A49086180
:10050000C8601420486100208861C86108460068FE
:1005100040F00100086008464068564908405249CA
:10052000486008460068544908404F49086008463A
:10053000006820F4802008600846406820F4FE002F
:1005400048600020886000214FF00060FFF728FF1E
:1005500000BD10B540480830006840F004004FF07E
:10056000E021C1F8100D4048C06940F080503E497C
:10057000C8614248406840F480704049486008467D
:10058000006840F0040008600846006840F002007F
:100590000860FFF705FE10BD3048001D2E49091DFB
:1005A000086070470146084649062F4A926942F0A2
:1005B00001022D4B9A612D4A083A526822F0E062FE
:1005C0002A4B083B5A601A4652680A435A607047E1
:1005D00030B504460025FFF78FFF2348006840F43C
:1005E00080302149086000BF1F480068400CFBD0E4
:1005F0004FF480601C494860A01EC4B208464068A1
:1006000040EA844048600846406840F480304860D2
:100610001B48006840F03200194908601248006821
:1006200040F080701049086000BF0F480068400E1D
:10063000FBD00D48406840F002000B49486005E0DF
:1006400009484068C0F3870505F00305022DF7D17E
:1006500030BD000080FFFF1F08ED00E00000FA053C
:1006600000E100E000E400E000100240080001406A
:10067000000401400000FFF8FFFFF6FE007000409C
:1006800000200240014600BF704700BF5A4A12884E
:1006900012F0400FFAD0C2B2574B1B1D1A807047A0
:1006A0005549098811F0200F34D05349091D098894
:1006B000C8B25249097811F0800F2BD14F490978FF
:1006C00011F0400F0CD00A2803D000214B4A1170C2
:1006D00020E04A49097841F08001484A117019E048
:1006E0000D2806D14549097841F04001434A11706F
:1006F00010E04249097801F03F01414A50543F4916
:100700000978491C3D4A1170114609783F2901DDDD
:100710000021117070472DE9F05F04460D46280155
:1007200001F04DFF8146374904FB01F001F047FF1E
:100730008246494601F00CFE0646304601F0FAFEBC
:1007400087B2384601F03BFF8346314601F0E5FFB2
:1007500082464FF0834101F037FF814601F0EAFE07
:1007600080463F0107EB080087B22748806940F0C8
:100770000400254988610846806940F4804088610A
:100780002248006820F47F602149C1F80408084627
:10079000D0F8040840F40B60C1F804081A48C06897
:1007A00040F480401849C8600846C06820F4804082
:1007B000C8601848A0F808780F480C30008842F24A
:1007C0000C0108431349A1F80C080846B0F80C08BE
:1007D00040F48070A1F80C080846B0F80C0840F00E
:1007E000200005490C3108800223252203210846F8
:1007F000FFF7EEFDBDE8F09F003801400C0000203F
:100800001800002040420F00001002400408014080
:1008100000000140003001401848806940F00800A5
:10082000164988611648006820F470401549C1F8DF
:10083000000C0846D0F8000C40F44050C1F8000C01
:100840000846D0F80C0C40F00800C1F80C0C084623
:10085000D0F8000C20F00F00C1F8000C0846D0F8CA
:10086000000C40F00300C1F8000C0846D0F80C0C56
:1008700040F00100C1F80C0C70470000001002406D
:10088000000C0140000001405F48806940F0080012
:100890005D4988615D48006820F0F0005C49C1F85E
:1008A000040C5948806940F4007057498861084633
:1008B000C06840F40070C8600846C06820F400704A
:1008C000C8600846406820F44040486008464068D8
:1008D00040F4004048604F4800684F4908404F4985
:1008E000C1F804040846D0F80404C1F8040408461A
:1008F000D0F8040420F48070C1F804040846D0F84D
:10090000080420F00200C1F808040846D0F80804E2
:1009100020F46020C1F808040846D0F8080440F428
:100920006020C1F808040846D0F8080440F480109C
:10093000C1F808040846D0F8080420F40060C1F8A3
:1009400008040846D0F82C0420F47000C1F82C04E8
:100950000846D0F82C040020C1F82C040846D0F832
:10096000100420F00F00C1F810040846D0F810045D
:1009700040F06050C1F810040846D0F8080440F078
:100980000100C1F808040846D0F8080440F0080047
:10099000C1F8080400BF1F48001D006810F0080FD0
:1009A000F9D11C48001D006840F004001B49C1F843
:1009B000080400BF1748001D006810F0040FF9D1AB
:1009C0007047014613483030006820F01F00134A7A
:1009D000C2F834041046D0F834040843C2F8340492
:1009E0001046D0F8080440F48000C2F8080400BFA4
:1009F0000848001F006810F0020FF9D00548483081
:100A0000006880B27047000000100240040C0140F2
:100A10000000014004240140FFFFF00000200140DD
:100A200010B54848008810F0010F10D00120464949
:100A300008600520FFF798FC00204449C1F88001B8
:100A40004348006800F03DF96420FFF78DFC3D4805
:100A5000008820F001004FF08041A1F8100410BD83
:100A600070B504460D463B48C06940F00200394964
:100A7000C86134481C3004808804A0F82854B0F8B9
:100A80000C0440F001008904A1F80C040846B0F8F9
:100A90000C0440F04000A1F80C040846B0F8000433
:100AA00040F00100A1F8000402231D2203210120CF
:100AB000FFF78EFC70BD274AD26942F00402254B35
:100AC000DA611A46926942F008029A61224A126873
:100AD00022F07F42214BC3F8002C1A46D2F8002C9A
:100AE00042F09642C3F8002C9A03A2F82C08A2F810
:100AF0002818B2F8182842F070029B03A3F81828AF
:100B00001A46B2F8182842F00802A3F818281A4624
:100B1000B2F8202842F00202A3F820281A46B2F8C0
:100B2000202842F001020E4B1A808022D305A3F840
:100B30000028D205B2F8002842F00102084B203B01
:100B40001A807047100400408081214200802142B9
:100B50000400002000100240000C01400000014091
:100B6000200800408A48806940F004008849886174
:100B70008848006820F00F008749C1F8000808463F
:100B8000D0F8000840F00300C1F800080846D0F88B
:100B90000C0840F00100C1F80C080846D0F8000825
:100BA00020F0F000C1F800080846D0F8000840F036
:100BB0003000C1F800080846D0F80C0840F00200E8
:100BC000C1F80C080846D0F8000820F47060C1F89D
:100BD00000080846D0F8000840F44070C1F800084A
:100BE0000846D0F80C0840F00400C1F80C0808468C
:100BF000D0F8000820F47040C1F800080846D0F88A
:100C0000000840F44050C1F800080846D0F80C082D
:100C100040F00800C1F80C080846D0F8000820F49D
:100C20007020C1F800080846D0F8000840F44030B1
:100C3000C1F800080846D0F80C0840F01000C1F8D0
:100C40000C080846D0F8000820F47000C1F800082D
:100C50000846D0F8000840F44010C1F800080846E3
:100C6000D0F80C0840F02000C1F80C080846D0F875
:100C7000000820F07060C1F800080846D0F80008AD
:100C800040F04070C1F800080846D0F80C0840F069
:100C90004000C1F80C080846D0F8000820F0704069
:100CA000C1F800080846D0F8000840F04050C1F8EC
:100CB00000080846D0F80C0840F08000C1F80C0885
:100CC0007047052857D2DFE800F0031324354600AB
:100CD0000121324A1160324AC2F894112F4A083277
:100CE0001160121D116000212C4A121F116042E098
:100CF00001212A4A121F11600021294AC2F89011CD
:100D00000121264A121D1160121D1160121D116071
:100D100031E00121214A121F1160214AC2F89011CD
:100D20001E4A08321160121D116000211B4A121D5B
:100D3000116020E00121194A121F1160184AC2F8FF
:100D40009011164A121D1160144A0C3211600021D4
:100D5000121F11600FE00121104A121F1160104A8A
:100D6000C2F890110D4A121D1160121D1160002170
:100D7000121D116000BF00BF0021084A103A116027
:100D8000074AC2F88411054A083A1160704700000A
:100D90000010024000080140000001409001214283
:100DA00000002142704700000FB4054A054910B504
:100DB00003AB7944029800F0EAFA10BC5DF814FB2A
:100DC00010000020D5F8FFFF70B504468569006863
:100DD0003026C10600D42026C00709D106E0D4E998
:100DE000012130469047206A401C20626D1EF6D5D6
:100DF00070BD70B5044685690068C00709D006E07B
:100E0000D4E9012120209047206A401C20626D1EF9
:100E1000F6D570BD2DE9F05F4FF0000B0446894612
:100E20004FF0010AC0F820B02046E168884700284A
:100E30007DD0252802D0D4E9012173E0E168204665
:100E400000268847C4F81CB005460027C4F818B02F
:100E50002A2D10D1204659F8041B04EB870291611A
:100E6000E1688847012F054627D1E06900282FDA7D
:100E700026F020062CE0A5F1300052460A28014653
:100E800019D2C2B104EB870092468046816108E026
:100E9000D8F8180000EB800005EB40003038C8F8A7
:100EA00018002046E16888470546303851460A2830
:100EB00001D20029ECD1012F0AD02E2D08D12046D5
:100EC000E16888477F1C0546022F46F02006BFDBFD
:100ED000A069002803DA404246F00106A061F0074D
:100EE00001D026F01006CDB1A5F14100192802D895
:100EF000203546F400664A462946204626604E467E
:100F0000FFF72EF958B1012802D106F104098BE749
:100F1000F61D26F0070000F1080985E707E0D4E98F
:100F2000012128469047206A401C20627CE7206A05
:100F3000BDE8F09F704770477047704770472DE9D4
:100F4000FF4F0C4698468DB0D2E90010DDF868A03E
:100F5000CDE90810C0F30A550DB94FF0FF35002157
:100F600008464FF00000099900F44000002905DA16
:100F700000EB80004FF4400101EA50004FEA905B23
:100F8000BBF1010F01DD4FF0FF3BDDE9080150EA45
:100F9000410016D1BAF1010F02D16FEA080207E051
:100FA000302101E02154401C4045FBDB404600223B
:100FB000002121540D99C1E9010A0A6011B0BDE870
:100FC000F08FA5F2FF3544F610504543CBF10000F9
:100FD0000B904FEA2549BAF1000F03D1A9EB0805A0
:100FE0006D1C01E0C8F100050B9A002D00DC5A468B
:100FF000294601DAC5F1000103A800F065FADDE930
:10100000081000F041FBA0F500501F388DE80700E4
:101010000398002D09DD42F21F015A46084403A936
:101020000390684600F0A1FD08E0A0F500505A4684
:101030001F3803A90390684600F0ABFD8DE8070058
:101040000004000C03D04FF0FF356E0801E00E469F
:101050001546BAF1000F25D1474607E0314628462C
:1010600000F0AEF9303205460E46E2557F1EF5D54A
:101070000023012786EA030185EA03000843CDF82F
:101080001C8003D0002709F1010005E020783028FA
:1010900003D10027A9F101008146002FCDF8189057
:1010A00099D034E000200A9007460AE0112F0FDAA9
:1010B0003146284600F084F9303205460E46E255A6
:1010C0007F1C002386EA030185EA03000843EDD173
:1010D000002386EA030185EA0300084310D138465D
:1010E000002104E0235C625C6354491C2254401ECE
:1010F0008142F7DBA7EB0800401ECDE9060706E0BA
:101100000A9820B94FF011084FF0000A63E7079AD8
:101110000020A0540D98C0F808A0079941600699D6
:1011200001604BE72DE9F04F04468846D21D22F0BE
:10113000070091B0D0E90010CDE9021001460298F5
:1011400000F05DFE0399CA0F4FF02D0106D1226811
:101150002B21930702D4202101EAC20103288B46E8
:1011600001D0072806DB5B4602464146204600F0D8
:101170006DF905E12068800601D5E76900E00627E2
:101180001120B8F1650F1ED0B8F1660F29D0B8F163
:10119000670F62D1012F00DA01270023112F00937E
:1011A00000DC3846034602AA06A90EA8FFF7C7FED0
:1011B00020683D460026000734D40F98A84200DA84
:1011C000054606A827E00023112F009300DA781CBB
:1011D000034602AA06A90EA8FFF7B1FE00267D1C51
:1011E00026E001234FF0004902AA06A90EA80093A9
:1011F0003B46FFF7A4FEDDE90F50002610B90E991B
:10120000781C0D18781B02D47D1CC0F1FF36A5EBAD
:10121000070A22E06D1E012D04DD411911F8011CA1
:101220003029F7D00E98B84202DA10F1040F03DA31
:101230004FF0010A0E980FE0002802DC2D1A064438
:1012400004E0401CA84201DD0E9D6D1C0E98801B21
:1012500000F1010A4FF0004081462068000703D4E6
:10126000AA4501DB4FF0FF3A0020B9F1004F0DF124
:1012700017078DF8170024D04FF002082B20B9F182
:10128000000F01900BDA2D20C9F10009019006E052
:10129000484600F081F93031814607F8011DB8F168
:1012A0000000A8F10108F3DCB9F1000FF0D10198BA
:1012B00007F8010D21684520090500D4652007F8CD
:1012C000010D04A8C01B00F107085FEA0B0000D065
:1012D0000120411901EBEA7101EB0800A169081A2C
:1012E000401EA0612068C00602D42046FFF76CFDB6
:1012F000BBF1000F06D05846D4E901219047206A7F
:10130000401C20622068C00625D52046FFF75CFD02
:1013100021E0002E07DB0F98B04204DD06A8D4E9D7
:101320000121805D02E0D4E9012130209047206A4C
:10133000401C2062761CAAF101005FEA000A0AD173
:1013400000F038F8C0680168405CD4E9012190479A
:10135000206A401C2062281EA5F10105D9DC07E0A7
:10136000D4E9012117F8010B9047206A401C206244
:10137000B8F10000A8F10108F2DC2046FFF739FDC2
:1013800002201BE601694A1C02610878704710B50B
:101390000C46194690B0CDE9024200220692044A5A
:1013A0007A44CDE9042001A8FFF734FD10B010BD48
:1013B000E1FFFFFF01487047704700007800002000
:1013C00030B5B0F10A024FEA900E71F100034EEA17
:1013D000817EB0EB0E0061EB91014FEA101E4EEAE8
:1013E000017E10EB0E0041EB11114FEA102E4EEA78
:1013F000016E10EB0E0041EB11214FEA104E4EEA48
:10140000014E10EB0E0041EB1141401841F100017B
:101410004FEAD00040EA41704FEAD10110EB80055D
:101420004FEA810444EA907444EB01046D1944EBE3
:101430000404521BA3414FF0000348BF0A3200D5F9
:1014400030BD401C41F1000130BD00002DE9F041EC
:1014500004461F4603260168072A01F4006003DBE7
:1014600015A520B915A502E015A500B915A521F00F
:1014700010002060A069C01EA0610FB1401EA061D5
:101480002046FFF7A1FC0FB9206A06E0D4E901214C
:1014900038469047206A401C2062C01C206204E04D
:1014A000D4E9012115F8010B9047761EF8D22046A9
:1014B000FFF79FFCBDE8F0814E414E006E616E006B
:1014C000494E4600696E66002DE9F0471746814691
:1014D0008AB0304A7A4407A838CA01F5DC511B317A
:1014E00038C038CA04A8372238C091FBF2F0A0F106
:1014F000800502FB10141B3C02D56442012000E071
:101500000020DFF890A080460026FA44AAF1B20A33
:101510000DE0E00709D03A4606EB46000AEB8001F1
:1015200007A800F036FB07AB07C36410761C002C3D
:10153000EFD1DFF860A001AEFA44AAF1A40A16E0E8
:10154000E80712D00AEB041090E80E0086E80E00BF
:10155000C068F84202D10398384403903A4601A982
:1015600004A800F016FB04AB07C36D10641C002D2B
:10157000E6D13A46B8F1000F07A904A802D000F05E
:10158000F4FA01E000F005FBA9E807000AB0BDE8A5
:10159000F0870000181500004FF00A01B0FBF1F2CF
:1015A00002FB1101104670470048704758000020A8
:1015B0007546FFF7F9FFAE4605006946534620F031
:1015C0000700854618B020B5FEF7F8FDBDE82040BD
:1015D0004FF000064FF000074FF000084FF0000BEF
:1015E00021F00701AC46ACE8C009ACE8C009ACE8A2
:1015F000C009ACE8C0098D4670470446AFF30080CF
:101600002046FEF7C9FD00004FF0013C50F8042BC6
:1016100051F8043B9A4221D1A2EB0C03934313EA05
:10162000CC1317D150F8042B51F8043B9A4215D132
:10163000A2EB0C03934313EACC130BD150F8042B09
:1016400051F8043B9A4209D1A2EB0C03934313EAED
:10165000CC13DBD04FF0000070470000D01A01BA65
:10166000B1FA81F101F0180122FA01F0CB40C1F189
:101670002001DBB2C0B2C01A2CFA01F3D11A914397
:1016800011EAC311E6D170475FEA400C08BF91F040
:10169000000F4FEA8C234FEAC12243EA51514FEA2F
:1016A0001C5018BF00F5F0404FEA300018BF41F061
:1016B00000415FEA6C5C00F02980BCF1FF3F08BF8D
:1016C00040F080407047130C06BF12044FF0100C1E
:1016D0004FF0000C130E04BF12020CF1080C130F94
:1016E00004BF12010CF1040C930F04BF92000CF123
:1016F000020CD30F04BF52000CF1010C11464FF045
:101700000002A0F11F00A0EB0C00704711F0004F89
:1017100008BF704731F000413FF4D5AF0B0C06BF56
:1017200009044FF0100C4FF0000C0B0E04BF09021F
:101730000CF1080C0B0F04BF09010CF1040C8B0F0A
:1017400004BF89000CF1020CCB0F04BF49000CF15F
:10175000010CCCF12003A0EB0C0022FA03F302FAF7
:101760000CF241EA030100F10100704720F07F4CC8
:1017700080EA030023F07F47ACEB070303F57C53BB
:1017800000F0004003F1FF032DE980494FEA154BBB
:1017900009B44FEA144325EA0B4E24EA03480FF23A
:1017A000042606EB132749083E785FEA320203FB62
:1017B0000667C7F5000707FB06F64FEA54374FEAFE
:1017C000D64606F1020607FB066CCCF1005C4FEA38
:1017D0001C472CEA074C07FB06F40CFB06F504EB50
:1017E00015464FEA961634BF00204FF000404FEAEE
:1017F000D13706FB07FC4FEA1C4C0CFB0BF7D21B46
:1018000003FB0CF761EB07010CFB0EF7B0EB074095
:1018100072EB17420CFB08F734BFA2EB0742B2EBA6
:10182000074261EB17414FEA0C444FEA910706FB70
:1018300007FC4FEA1C4C0CFB0BF7B0EBC74072EBFC
:10184000573203FB0CF734BFA2EBC742B2EBC742DF
:1018500061EB57310CFB0EF7B0EBC70072EB577220
:101860000CFB08F734BFA2EBC702B2EBC70261EB77
:101870005771039F4FEA816141EA921104EBCC0456
:101880004FEAD1374FEA826206FB07FC42EA901228
:101890004FEA80604FEA1C4C0CFB0BF7D21B03FB9A
:1018A0000CF761EB07010CFB0EF7B0EB074072EB96
:1018B00017420CFB08F734BFA2EB0742B2EB07421A
:1018C00061EB17414FEA8C554FEA910704EB9C24DA
:1018D00006FB07FC4FEA1C4C0CFB0BF7B0EBC740B8
:1018E00072EB573203FB0CF734BFA2EBC742B2EBEB
:1018F000C74261EB57310CFB0EF7B0EBC70072EB40
:1019000057720CFB08F734BFA2EBC702B2EBC70259
:1019100061EB577115EB4C254FEA816141EA921159
:101920004FEA82624FEAD13742EA901206FB07FC87
:1019300044F100044FEA80604FEA1C4C0CFB0BF7AB
:10194000D21B03FB0CF761EB07010CFB0EF7B0EBAE
:10195000074072EB17420CFB08F734BFA2EB0742BB
:10196000B2EB074261EB174115EB1C154FEA8131D1
:1019700041EA92414FEA823242EA90424FEA803095
:101980004FEA0C7644F1000448EA03434EEA0B4860
:101990004FF0000EB2EB080C71EB030724BF624658
:1019A00039464EEB0E0E4FF0000B001852414941E4
:1019B0004BEB0B0BB2EB080C71EB03077BF1000B4D
:1019C00024BF624639464EEB0E0E4FF0000B001856
:1019D000524149414BEB0B0BB2EB080C71EB030787
:1019E0007BF1000B24BF624639464EEB0E0E51EAE6
:1019F000020718BF46F0010616EB0E7655F10002FD
:101A000054F1000103D5BDE88901BDE80088BDE8B7
:101A10008901BDE80048B619524141EB0101A3F12B
:101A20000103704780807F7E7D7C7B7A7978777632
:101A300076757473727171706F6E6E6D6C6C6B6AAB
:101A40006A69686867666665646463636261616049
:101A5000605F5F5E5E5D5D5C5C5B5B5A5A595958C6
:101A60005857575656555555545453535252525130
:101A7000515050504F4F4F4E4E4D4D4D4C4C4C4B86
:101A80004B4B4A4A4A4949494848484747474746CD
:101A90004646454545444444444343434342424209
:101AA00042414141002B26D4770021D01CB54FEA9A
:101AB000370703B44FF010004FF010014FF0000053
:101AC0000FBCBDE810400BF1010BBBF1010F08BFCB
:101AD0005FEA170722BF12F1010211F101014FF075
:101AE000004143F1000300F0004043EA000070476A
:101AF000F9D35708DAE746EA064613F1400F4FEAF2
:101B000016461FDD13F1200FDFBF16430A460021E2
:101B100020335B42C8D0C3F1200746EA064602FAEA
:101B200007F74FEA164646EA0706C3F1200722FAEE
:101B300003F201FA07F721FA03F14FF0000342EA3A
:101B40000702B1E746EA020646EA06464FEA1646AB
:101B500046EA0106BCBF46EA0646360C4FF00003D3
:101B60004FF000024FF000019EE72DE9C048934678
:101B700030B491E8380007C831EA400C48BF34EA75
:101B8000430C03D5FFF7F2FDFFF78CFFF0BCBDE877
:101B900000882DE9C048934630B491E8380007C862
:101BA00010F0804F08BF13F0804F03D100F005F80C
:101BB000FFF778FFF0BCBDE8008820F07F4780EA9F
:101BC000030023F07F4C07EB0C03A3F57C5300F0DC
:101BD0000040A3F1FE0392F0000F00F0B38095F0F7
:101BE000000F00F077802DE901494FEA11404FEADC
:101BF000144621EA004800FB06FC24EA064708FBDD
:101C000006F607FB08F800FB07F718EB06484CEB55
:101C1000164C4FEA124B18EB07484FEA15464CEBAF
:101C2000174022EA0B4E0BFB06FC25EA06470EFB8B
:101C300006F607FB0EFE0BFB07F71EEB064E4CEB02
:101C4000164C4FF000061EEB074E4CEB174B18EBF3
:101C50000B0840F1000018EB0E0B58EB000840F1A8
:101C600000008F1A4FF000013CBFC943661B14BF30
:101C7000B5EB040C00213CBFC943F61B4FEA1744E7
:101C80004EEA8E0E27EA04454FEA1C4704FB076222
:101C90002CEA074C05FB07F70CFB05F604FB0CFCD4
:101CA00016EB074642EB174216EB0C4642EB1C4282
:101CB0001BEB060658EB0202414146EA9E0601D59F
:101CC000BDE80189B619524141EB0101A3F10103BD
:101CD000BDE801894FEA14454FEA114724EA054659
:101CE00021EA074C05FB07F406FB07F70CFB06F19E
:101CF00005FB0CFC11EB074144EB17444FEA12477C
:101D000011EB0C4144EB1C4422EA074C05FB07F2A3
:101D100006FB07F70CFB06F605FB0CFC16EB07466B
:101D200042EB174216EB0C4642EB1C456A1854F185
:101D3000000148BF7047B619524141EB0101A3F1C0
:101D40000103704795F0000F37D04FEA11424FEA78
:101D5000144721EA024624EA074C02FB07F106FB7E
:101D600007F70CFB06F402FB0CFC14EB074441EBF9
:101D700017414FEA154714EB0C4441EB1C4125EA8F
:101D8000074C02FB07F506FB07F70CFB06F602FB08
:101D90000CFC16EB074645EB174516EB0C4645EBDE
:101DA0001C42121951F1000148BF7047B619524147
:101DB00041EB0101A3F1010370474FEA14454FEADB
:101DC000114724EA054621EA074C05FB07F106FB0B
:101DD00007F70CFB06F24FF0000605FB0CFC12EBBC
:101DE000074241EB174112EB0C4251EB1C4148BF3B
:101DF0007047921841EB0101A3F1010370474900BC
:101E000050EAC12000D004204A0D01D040F001006A
:101E100040F2FF72B2EB515F01D140F002000128A5
:101E200000D105207047000010B500290AD00878BD
:101E3000002807D005487844FFF7E6FB002801D0CA
:101E4000002010BD0248784410BD0000F20B0000D5
:101E5000EA0B000001F0004321F0004181EA410259
:101E600012F0FE4F08BF12F4600F00F02880A1F1BD
:101E70006051B1F5801F1BDB02014FF0404C09D8C7
:101E800003D208BF4FF0000C0AE000F000521CEB38
:101E9000820C05D410F100504FF0804C41F100014C
:101EA000B1F17F6F06DA43EAC10343EA507070472D
:101EB000184670474FF0FF0243EAC250704711F4D2
:101EC000801F01D118467047DFF818C041EA0301AE
:101ED00050EA013240F01080AFF3008021F4E000BE
:101EE000704700008800000402494FF0000000F035
:101EF000F6BC00000000F87F02494FF0000000F03F
:101F0000EEBC00000000F87F10F0004314BF414217
:101F1000014643F08043B1FA81FC03F1F87311FAF2
:101F20000CF1A3EB0C534FEA415008BF704703EB91
:101F3000E1217047DFF8B4C170B53CEA111E18BF4B
:101F40003CEA131E00F0A68081EA03050CEA111E8C
:101F50004EEAD57E1CEA131518BF11EA0C1F00F0DB
:101F60008F80AE4421EA4C1123EA4C13AEF17F7E00
:101F700041F4801143F48013A1FB024CA0FB0365E4
:101F8000361955EB0C05A1FB034C4CF10003A0FBEB
:101F9000021C16EB0C06654153F10003094218BF01
:101FA00046F001064FF0140CB3F5007F4CF1000C25
:101FB000CCF1200425FA0CF203FA04F141EA020103
:101FC00005FA04F026FA0CF240EA02006FF0030270
:101FD00042EB2E4216FA04F401EB025585EACE716B
:101FE00015D05FEA440C38BF4FF040440FD308BF10
:101FF00043F0004350F1000041F1000110EAD37FAB
:102000004FF0804420EAD37018BF4FF0404415F0E1
:10201000004FDFF8DCC017D415EA0C0F18BF3CEAFC
:10202000010C11D070BD5FEACE7454BF1CF4000FD8
:102030001CF4800F0ABF4FF080444FF0404410F171
:10204000010041F10001E2E7BEF1806FA2BFA1F102
:10205000C04144F0130C4CF0805CBDE8704006DADF
:102060004FF0000001F1C04101F0004170476FF0F6
:10207000000041EA500181EA10314FF00000704742
:102080004FEACE714FF0000070BD4FEACE714FF0B5
:10209000000070BD4FEA4105B5EB4C1F4FEA430607
:1020A00008BF002898BFB6EB4C1F08BF002ABDE848
:1020B0007040DFF840C03FF617AFAFF300804FF439
:1020C000001CBCEB410F98BFBCEB430F0AD84FF08C
:1020D000000081EA030101F0004141F0FE4141F4BA
:1020E0007001704704494FF0000070470000FF077F
:1020F0000000F07F130000040000F87F094248BF91
:102100004CF4803C4FF4C0634FEA115203F10103D9
:1021100021EA025122F400629A1A48BF6FF0FE02CF
:1021200041F48011352A3CD830D0152A1ED3203AEC
:102130000CD90028C2F1200321FA02F001FA03F2BF
:1021400018BF42F001024FF0000130E0C2F100037D
:1021500002F1200201FA03F120FA02F241EA02013F
:1021600000FA03F208464FF0000120E0C2F120031C
:1021700010B400FA03F401FA03F320FA02F021FA92
:1021800002F1224610BC43EA000010E050EA01329E
:102190004FF000004FF000014FF0004218BF521CFA
:1021A00005E04FF001024FF000014FF000001CF479
:1021B000803F2CF4803C18BF41F00041124208BF20
:1021C0007047520003D303D0401C41F10001704717
:1021D0005FEAAC72F8D4FAD1401C41F1000120F062
:1021E0000100F4E77047704700F5000C1CF0FE4F4B
:1021F00009D0C1104FEA407001F1605158BF7047DB
:10220000A1F1E04170471CF4000F08D001464000E6
:1022100008BF70474FF000004FEA30017047DFF809
:1022200014C0420240F08E80AFF3008040F4E00121
:10223000104670471800000490EA010F48BF81F073
:10224000004100F17C82421A3CBF801A89184FEA93
:10225000D0524FF07F4C1CEA410FA2EBD15318BF74
:102260009CEA026F00F040804FF0004C4CEA0020E6
:102270004CEA012121FA03FC10EB0C0C23D202F1F1
:10228000FF325FEA1C2040EBC25038BF70471CF0A1
:102290007F0F4FEA400C18BFBCF17F4F38BF70472B
:1022A000C3F12003994008BF20F00100BCF17F4F2B
:1022B00038BF7047A0F1C0404FF0FF0141EAD05154
:1022C0004FEAC15070474FEA3C00000A40EBC25051
:1022D00028BF1CF0FF0F4FEA400CE1D018BFBCF143
:1022E0007F4F38BF7047E5E79CEA026F05D010EAE0
:1022F0005C0F08BF00F000407047BCEB410F4FEA95
:10230000400228BF9445DFF828C0C0F01580AFF325
:102310000080B2EB410F05D012F1807F08BF7047FB
:102320000846704790EA010F58BF70470148704750
:10233000010000040000C07F014800F0D0BA000096
:102340000000C07F014800F0CABA00000000C07F52
:102350004FF47F0C1CEAD0121EBF1CEAD11392EA84
:102360000C0F93EA0C0F00F0A58090EA010F48BF14
:1023700042F4807240F4000C41F400002CF07F41E4
:1023800020F07F4000B58142A2EB03020FF2401C17
:10239000ACEB504EC0F100009EF800E04FEA4E0E4C
:1023A00000FB0EFC38BF49004FEA2C1C02F5FA0274
:1023B0000CFB0EF34FEACE1E4FEA112C4FEAC1215F
:1023C0000EEB635E0EFB0CFC4FEA1C5300FB03118B
:1023D0004FEA112C4FEA01310EFB0CFC02F4807E17
:1023E00042EB22424FEADC4C00FB0C11C14228BFF9
:1023F00009184CEB0333012924BF4EF0020E4EF0B6
:10240000804E10EB410F24BF4EF0010E4EF0804E77
:1024100008BF4EF0040E4EF008015DF804EB43EBEC
:10242000C25018BFB2F57C0F38BF704741EAC07187
:1024300008BF20F00100B2F57C0F38BF704729D5E6
:1024400012F0F00F1CBF00F1C04000F000407047D8
:10245000008182838485868788898B8C8D8E8F917D
:102460009293959697999A9C9D9FA0A2A3A5A7A8A1
:10247000AAACAEB0B2B3B5B7B9BCBEC0C2C5C7C9CD
:10248000CCCED1D4D7D9DCDFE2E6E9ECF0F3F7FA31
:10249000FE0000004FEA400C0CF1807CBCF17E4F46
:1024A00028BF7047B0F1C0404FF07F404CBF401094
:1024B0004008704790EA010F0CEAD11348BF42F47C
:1024C0008072624538BF634507D213F47F0F23D073
:1024D00080EA010000F0004070474FF0807C1CEB68
:1024E000400F98BF1CEB410FDFF840C03FF624AF10
:1024F000AFF300804FF0807C1CEB400F02BF1CEB61
:10250000410F0B4870471CEB410F0CBF002020F01F
:10251000004040EAC250704712F47F0F04BF0448E5
:10252000704742F0FF004FEAC050704704000004BB
:102530000000C07FC2154FEA002318BF43F00043DC
:1025400005D4D2F19E020AD323FA02F070474FEA73
:102550004001B1F1FE4F02D24FF000007047DFF8AA
:1025600028C04FEA4001B1F17F4F88BF4CF4803C56
:102570003FF6E8AE1CBF6FEAE0707047AFF3008033
:102580006FEAE070704700006800020410F000423B
:1025900018BF404242F08042B0FA80F18840A2EB7E
:1025A000C15202F1786208BF7047410642EB202019
:1025B00018BF5FF0806C28BF20F0010070474FF01B
:1025C0008042FFF7E9BF00004FF47F0C1CEAD012F5
:1025D0001EBF1CEAD11392EA0C0F93EA0C0F00F015
:1025E0004A8090EA010F48BF42F480724FF0004CDD
:1025F0004CEA00204CEA01211A44A0FB01C3A2F5D9
:102600000002BCF1000F18BF43F0010302F4807C0C
:10261000B3F1004F38BF5B0042EB2242180A40EB97
:10262000C25028BF13F07F0F18BFB2F57C0F38BF20
:10263000704708BF20F00100B2F57C0F38BF70472B
:102640000BD582F0FF0212F5803FC8BF704700F142
:10265000C040D8BF00F00040704700F5000C5FEAB2
:102660004C0C48BF7047B0F1C0404FF07F404CBFAA
:1026700040104008704790EA010F0CEAD11348BFA0
:1026800042F48072624538BF634504D280EA01009B
:1026900000F0004070474FF0807C1CEB400F98BF6B
:1026A0001CEB410F4FF0030C4CF0806C3FF644AE36
:1026B000AFF3008012F47F0F1FBF13F47F0F42F0BF
:1026C000FF02D00570470148704700000000C07F3E
:1026D00010B412F47F0F4FEA00204FEA012110D10D
:1026E000B0FA80F400FA04F0A2EB044213F47F0F76
:1026F00002F5803218BF41F0004100D010BC18BF75
:10270000604740F00040B1FA81F401FA04F1A3EB14
:10271000044310BC03F58033604780F0004090EA2A
:10272000010F7FF590AD81F0004100F008B8000086
:1027300090EA010F48BF81F000413FF584AD421A95
:102740003EBF82F00042801A89184FEAD0524FF003
:102750007F4C1CEA410FA2EBD15318BF9CEA026FD9
:102760004FD04FF0004C4CEA00204CEA012121FAF6
:1027700003FCB0EB0C0C0FD412F0FE0F18BF5FEA95
:102780004C001DD5001240EBC25038BF70471CF002
:102790003F0F18BF70470BE0A2F101025FEA1C2057
:1027A00040EBC25038BF70471CF07F0F18BF704716
:1027B000C3F12003994014BF401E20F00100704770
:1027C0004FEA122316D0004204BF002070474FEAA0
:1027D0009000B0FA80FCA2EB0C02CCF1280C60FA5D
:1027E0000CF093EA122F04BF00EBC25070474FEA7F
:1027F000C37070475FEADC1008BF70474FEAC370D0
:1028000070479CEA026F04D010EA5C0F08BF0020FA
:102810007047BCEB410F4FEA400228BF9445DFF8F8
:102820002CC0FFF489ADAFF30080B2EB410F06D0AE
:1028300012F1807F08BF704781F00040704790EA36
:10284000010F48BF704702487047000002000004B3
:102850000000C07F00F0004343EAD05323F48073AC
:10286000C3F1C10323F0004117291FD8C3F120038E
:1028700010FA03F1C3F1200320F07F4040F4000080
:1028800020FA03F003F0004340EA03000DD00B46AA
:10289000590009D318BF401C06D17FEAE27398BFE4
:1028A000401C38BF20F0010070477047182903EB27
:1028B000912318BF6FF00041013168BF03F0004061
:1028C00009D6400203F0004000F1010004BF12F0FD
:1028D000004F20F0010070477047FEF723BC0CF05A
:1028E0000F03092B08BF082000F02B800A2B0BD008
:1028F000082B18BF704708BF1CF0400F0AD04FF0DC
:1029000000004FF0000170471CF0400F18BF4FF05F
:10291000004070471CF0100F08D020F0704300F00A
:102920007F4242EAD3014FEA4370704700F06040B3
:1029300021F07F4242EA000201F07F4040EA7270DB
:1029400070471CF4801F11D01CF4E02F03D06FEAF5
:10295000CC31490070474FF04050EFF3008222F035
:10296000704242EA000282F3008870474FF0000094
:102970007047000002400000000000A000000000BE
:1029800005400000000000C8000000000C400000EE
:102990000000409C00000000194000000020BCBE68
:1029A0000000000034400000BFC91B8E000000047E
:1029B000B5400000504BCFD06607E2CF01000000C9
:1029C0006C4100003E8251AADFEEA73401000000F6
:1029D000D9420000DCB5A0E23A301F97FFFFFFFFAD
:1029E000B4450000FD25A0C8E9A3C14FFFFFFFFFCC
:1029F000FF3F00000000008000000000FF3F0000DB
:102A00000000008000000000442A000800000020B0
:102A100018000000280100085C2A000818000020A7
:102A2000A0020000440100081C0000004300000058
:102A3000F8FFFFFF0C0000000E0000000F00000078
:102A40002E00000001000000000000000000000057
:0C2A50000000000000000000000000007A
:04000005080001A549
:00000001FF
